:100000000C942A000C9434000C9434000C943400AA
:100010000C9434000C9434000C9434000C94340090
:100020000C9434000C9434000C9434000C94340080
:100030000C9434000C9434000C9434000C94340070
:100040000C9434000C9434000C9434000C94340060
:100050000C94340011241FBECFE5D8E0DEBFCDBF25
:100060000E9436000C94CA000C9400008FE081BB03
:1000700080E090E041C029E022BBE7EAF1E6319759
:10008000F1F700C0000028E022BBE7EAF1E6319773
:10009000F1F700C000002CE022BBE7EAF1E631975F
:1000A000F1F700C0000024E022BBE7EAF1E6319757
:1000B000F1F700C0000026E022BBE7EAF1E6319745
:1000C000F1F700C0000022E022BBE7EAF1E6319739
:1000D000F1F700C0000023E022BBE7EAF1E6319728
:1000E000F1F700C0000021E022BBE7EAF1E631971A
:1000F000F1F700C0000001968C3091050CF4BBCFE5
:1001000089E082BB87EA91E60197F1F700C0000021
:100110009FE3EDE0F3E09150E040F040E1F700C0F4
:10012000000080E090E021C029E022BBE7EAF1E690
:100130003197F1F700C0000023E022BBE7EAF1E6C7
:100140003197F1F700C0000026E022BBE7EAF1E6B4
:100150003197F1F700C000002CE022BBE7EAF1E69E
:100160003197F1F700C0000001968C309105E4F260
:1001700089E082BB87EA91E60197F1F700C00000B1
:100180009FE3EDE0F3E09150E040F040E1F700C084
:0801900000006ECFF894FFCFD0
:00000001FF
